S01700007470332074656D70657261747572612E737265632C
S11300000C9434000C9451000C9451000C94510045
S11300100C9451000C9451000C9451000C94510018
S11300200C9451000C9451000C9451000C94510008
S11300300C9451000C9451000C9441020C94510006
S11300400C9451000C9451000C9459020C945100DE
S11300500C9451000C9451000C9451000C945100D8
S11300600C9451000C94510011241FBECFEFD8E022
S1130070DEBFCDBF11E0A0E0B1E0E8EBFDE002C0DF
S113008005900D92A63AB107D9F721E0A6EAB1E0AE
S113009001C01D92AA3AB207E1F70E9419010C941B
S11300A0DA060C9400000F931F93CF93DF9300D0D4
S11300B000D01F92CDB7DEB78C01DB011C92FC018E
S11300C0108287B1816087B988B18E7F88B9FFEFCC
S11300D020EE80E0F15020408040E1F700C00000B5
S11300E098B1916098B995E09A95F1F7000097B1AD
S11300F09E7F97B9A0EDAA95F1F796B1892F8170EB
S113010090FD45C0EFE3F1E03197F1F700C0000046
S1130110309B3FC0AFE3B1E01197F1F700C000009E
S1130120B0E024C0309BFECFE0EAEA95F1F7309BC3
S11301300CC047E050E0491B510921E030E002C007
S1130140220F331F4A95E2F7A22B3099FECF9F5F0F
S113015002C0A0E090E0983028F321E030E02C0FBA
S11301603D1F2B0F311DF901A083BF5FB53088F30C
S113017049819A813B812C81940F930F920F2D8199
S1130180921309C0DB014C93F801308305C081E070
S113019003C082E001C083E00F900F900F900F9096
S11301A00F90DF91CF911F910F91089588E4809370
S11301B0B80084E08093BC00089584EA8093BC0076
S11301C08091BC008823E4F7089584E98093BC00FF
S11301D08091BC0084FDFCCF08958093BB0084E82B
S11301E08093BC008091BC008823E4F7089584ECDC
S11301F08093BC008091BC008823E4F78091BB000D
S1130200089584E88093BC008091BC008823E4F7BF
S11302108091BB00089584B5826084BD85B58560F6
S113022085BD8BE987BDEEE6F0E080818260808346
S11302300895CF93DF93CDB7DEB7A6970FB6F894A2
S1130240DEBF0FBECDBF0E947E0281E08B8387E0BC
S11302508C8388E18D838DE08E838BE38F8382E3AF
S113026088870E940B0187E60E94A1030E94AB03CA
S11302700E94B1030E94B70378944D8150E06C81D1
S11302808B810E94810248856F818E810E94EA02DF
S113029083E291E00E94C5038091A7018823E1F3E2
S11302A01092A701AE014B5F5F4FBE016C5F7F4FA1
S11302B0CE0103960E947303AE01485F5F4FBE01F7
S11302C0695F7F4FCE0106960E944703BE016E5FB1
S11302D07F4FCE0101960E9453009E81392F3295A3
S11302E03F70292F2F70932F990F392F330F330F0E
S11302F0930F920F9E839F81292F22952F70220F97
S1130300322F330F330F230F9F70920F9F839885E3
S1130310292F22952F70220F322F330F330F230FE3
S11303209F70920F98879B81292F22952F70220FFF
S1130330322F330F330F230F9F70920F9B839C81B7
S1130340292F22952F70220F322F330F330F230FB3
S11303509F70920F9C839D81292F22952F70220FCD
S1130360322F330F330F230F9F70920F9D83909181
S11303700001992309F46DC081118ECF89811F92E8
S11303808F9302E511E01F930F937E0189E0E80E3D
S1130390F11CFF92EF920E94F0038A811F928F93C7
S11303A01F930F938E01025F1F4F1F930F930E94A1
S11303B0F0038D811F928F938C811F928F938B8179
S11303C01F928F9385E591E09F938F935E0193E154
S11303D0A90EB11CBF92AF920E94F00388851F92B0
S11303E08F938F811F928F938E811F928F9384E6B8
S11303F091E09F938F936E018EE1C80ED11CDF9222
S1130400CF920E94F0030FB6F894DEBF0FBECDBFAB
S113041083E791E00E94C503C5010E94C5038BE7F1
S113042091E00E94C503C6010E94C50383E891E0E0
S11304300E94C503C7010E94C50384E991E00E949C
S1130440C503C8010E94C50381EA91E00E94C50367
S113045023CF0E94BD038091A9010E94C203109280
S1130460A9018091A801882309F416CF82EA91E0BA
S11304700E94C50381E091E00E94C5031092A80187
S11304800BCF1F920F920FB60F9211248F9380916E
S1130490A6018F5F8093A601863C29F481E08093B6
S11304A0A7011092A6018F910F900FBE0F901F907D
S11304B018951F920F920FB60F9211248F9380916B
S11304C0C6008093A9018091A901833721F080910E
S11304D0A901833569F480910001882319F01092F1
S11304E0000103C081E08093000181E08093A801B2
S11304F08F910F900FBE0F901F9018950E94D600F9
S113050008951F93CF93DF9300D01F92CDB7DEB72A
S11305109DEC899F212D112426952695269530E161
S1130520239FF0011124220F322F330F330F230F97
S1130530821B8E2B8983699F812D11248695869534
S1130540869590E1899F90011124880F982F990F27
S1130550990F890F681B622B6A839A01ADECBCEC7E
S11305600E94E103FC01F695E795F695E795F6956B
S1130570E7959F01220F331FCF01880F991F880F22
S1130580991F880F991F820F931F481B590BE295DF
S1130590E07F4E2B4B830E94DD0080ED0E94ED0036
S11305A084E00E94ED0010E00AC0E1E0F0E0EC0F0E
S11305B0FD1FE10FF11D80810E94ED001F5F1330CC
S11305C0A0F30E94E5000F900F900F90DF91CF9160
S11305D01F9108951F93CF93DF9300D01F92CDB73F
S11305E0DEB79DEC499F212D11242695269526954D
S11305F030E1239FF0011124220F322F330F330FE8
S1130600230F421B4E2B4983699F212D11242695CC
S11306102695269530E1239FA0011124220F322F25
S1130620330F330F230F621B642B6A83899F912D31
S1130630112496959695969540E1949F90011124E6
S1130640990F392F330F330F930F891B822B8B8311
S11306500E94DD0080ED0E94ED0080E00E94ED002C
S113066010E00AC0E1E0F0E0EC0FFD1FE10FF11D26
S113067080810E94ED001F5F1330A0F30E94E5000B
S11306800F900F900F90DF91CF911F910895EF92EB
S1130690FF920F931F93CF93DF93EC018B017A01A9
S11306A00E94DD0080ED0E94ED0080E00E94ED00DC
S11306B00E94E5000E94DD0081ED0E94ED000E9491
S11306C0F700F70180830E94F700F80180830E94FD
S11306D0010188830E94E500DF91CF911F910F9162
S11306E0FF90EF900895EF92FF920F931F93CF9393
S11306F0DF937C018B01EA010E94DD0080ED0E9402
S1130700ED0084E00E94ED000E94E5000E94DD00FF
S113071081ED0E94ED000E94F700F70180830E94A2
S1130720F700F80180830E94010190E09983888397
S11307300E94E500DF91CF911F910F91FF90EF9000
S113074008951092C10096E09093C2001092C500E3
S11307508093C4000895E1ECF0E080818860808398
S11307600895E1ECF0E08081806180830895E1ECFC
S1130770F0E080818068808308958091C00085FFC7
S1130780FCCF08958093C6000895EF92FF920F93D3
S11307901F93CF937C01C0E007C00E94BD03F80102
S11307A080810E94C203CF5F87010C0F111DF801E5
S11307B080818111F2CFCF911F910F91FF90EF9023
S11307C00895A29FB001B39FC001A39F700D811D26
S11307D01124911DB29F700D811D1124911D089546
S11307E0AEE0B0E0E6EFF3E00C94B1060D891E89AB
S11307F086E08C831A8309838FEF9FE79E838D8322
S1130800AE01475E5F4F6F89788DCE0101960E94DD
S11308101204EF81F885E00FF11F10822E96E4E0B8
S11308200C94CD06ABE0B0E0E8E1F4E00C94A30650
S11308306C017B018A01FC0117821682838181FF8E
S1130840CCC1CE0101963C01F6019381F70193FDE1
S1130850859193FF81917F01882309F4BAC1853280
S113086039F493FD859193FF81917F01853229F4B9
S1130870B60190E00E940906E7CF912C212C312C7F
S1130880FFE1F315D8F08B3279F038F4803279F047
S11308908332A1F4232D20611DC08D3261F0803399
S11308A069F4232D216016C0832D8260382EE32D38
S11308B0E4603E2E2AC0F32DF8601DC037FC2DC025
S11308C020ED280F2A3040F08E32B9F436FC81C175
S11308D0232D2064322E19C036FE06C08AE0989E6D
S11308E0200D1124922E11C0EAE02E9E200D112419
S11308F0222EF32DF0623F2E08C08C3621F4832D76
S11309008068382E02C0883641F4F70193FD859142
S113091093FF81917F018111B3CF982F9F7D9554CF
S1130920933028F40C5F1F4F9FE399830DC08336E7
S113093031F0833771F0833509F059C021C0F801D3
S1130940808189830E5F1F4F88248394912C5301E7
S113095013C02801F2E04F0E511CF801A080B180B1
S113096036FE03C0692D70E002C06FEF7FEFC50152
S11309700E94FE054C018201F32DFF773F2E16C025
S1130980280122E0420E511CF801A080B18036FEFD
S113099003C0692D70E002C06FEF7FEFC5010E94B4
S11309A0F3054C01F32DF0683F2E820133FC1BC08C
S11309B0822D90E088169906B0F4B60180E290E0AA
S11309C00E9409062A94F4CFF50137FC859137FE7D
S11309D081915F01B60190E00E94090621102A94DA
S11309E021E0821A91088114910471F7E8C08436D9
S11309F011F0893641F5F80137FE07C06081718135
S1130A00828193810C5F1F4F08C060817181072E22
S1130A10000C880B990B0E5F1F4FF32DFF763F2EB2
S1130A2097FF09C090958095709561957F4F8F4F82
S1130A309F4FF0683F2E2AE030E0A3010E94450654
S1130A40882E861845C0853731F4232D2F7EB22E8B
S1130A502AE030E025C0932D997FB92E8F36C1F05E
S1130A6018F4883579F0B5C0803719F0883721F04B
S1130A70B0C0E92FE061BE2EB4FE0DC0FB2DF460C2
S1130A80BF2E09C034FE0AC0292F2660B22E06C02C
S1130A9028E030E005C020E130E002C020E132E08F
S1130AA0F801B7FE07C060817181828193810C5F78
S1130AB01F4F06C06081718180E090E00E5F1F4F80
S1130AC0A3010E944506882E8618FB2DFF773F2E32
S1130AD036FE0DC0232D2E7FA22E891458F434FE29
S1130AE00BC032FC09C0832D8E7EA82E05C0B82C05
S1130AF0A32C03C0B82C01C0B92CA4FE0FC0FE0166
S1130B00E80DF11D8081803321F49A2D997EA92E60
S1130B1009C0A2FE06C0B394B39404C08A2D86789B
S1130B2009F0B394A3FC11C0A0FE06C0B21488F46B
S1130B30280C922C9B180EC0B21460F4B60180E20B
S1130B4090E00E940906B394F7CFB21418F42B185E
S1130B5002C0982C212CA4FE10C0B60180E390E0C2
S1130B600E940906A2FE17C0A1FC03C088E790E01A
S1130B7002C088E590E0B6010CC08A2D867859F051
S1130B80A1FE02C08BE201C080E2A7FC8DE2B601A7
S1130B9090E00E940906891438F4B60180E390E0DD
S1130BA00E9409069A94F7CF8A94F301E80DF11D87
S1130BB08081B60190E00E9409068110F5CF2220C1
S1130BC009F442CEB60180E290E00E9409062A941C
S1130BD0F6CFF6018681978102C08FEF9FEF2B96A7
S1130BE0E2E10C94BF06FC010590615070400110D5
S1130BF0D8F7809590958E0F9F1F0895FC01615042
S1130C00704001900110D8F7809590958E0F9F1F2A
S1130C1008950F931F93CF93DF93FB01238121FD4D
S1130C2003C08FEF9FEF2CC022FF16C0468157816F
S1130C30248135814217530744F4A081B1819D0179
S1130C402F5F3F4F318320838C93268137812F5F21
S1130C503F4F3783268314C08B01EC01FB010084D2
S1130C60F185E02D0995892BE1F6D80116968D9131
S1130C709C911797019617969C938E931697CE0185
S1130C80DF91CF911F910F910895FA01AA2728307F
S1130C9051F1203181F1E8946F936E7F6E5F7F4F45
S1130CA08F4F9F4FAF4FB1E03ED0B4E03CD0670FC1
S1130CB0781F891F9A1FA11D680F791F8A1F911D14
S1130CC0A11D6A0F711D811D911DA11D20D009F464
S1130CD068943F912AE0269F11243019305D3193A6
S1130CE0DEF6CF010895462F4770405D4193B3E08F
S1130CF00FD0C9F7F6CF462F4F70405D4A3318F036
S1130D00495D31FD4052419302D0A9F7EACFB4E0E6
S1130D10A6959795879577956795BA95C9F700979E
S1130D206105710508959B01AC010A2E069457953F
S1130D30479537952795BA95C9F7620F731F841F96
S1130D40951FA01D08952F923F924F925F926F922C
S1130D507F928F929F92AF92BF92CF92DF92EF9247
S1130D60FF920F931F93CF93DF93CDB7DEB7CA1BC8
S1130D70DB0B0FB6F894DEBF0FBECDBF09942A88F3
S1130D80398848885F846E847D848C849B84AA849B
S1130D90B984C884DF80EE80FD800C811B81AA8128
S1130DA0B981CE0FD11D0FB6F894DEBF0FBECDBFF3
S10B0DB0ED010895F894FFCF52
S1130DB801736520706175736F206F207265616EB1
S1130DC875646F20656C2070726F6772616D612144
S1130DD80A0D004269656E76656E69646F20616C00
S1130DE82073656E736F722064652074656D706519
S1130DF872617475726120616D6269656E74650AE9
S1130E080D00256400253032642F253032642F25E7
S1130E1830326400253032643A253032643A253061
S1130E2832640046656368613A200020486F726145
S1130E383A2000202D2054656D70657261747572B6
S1130E48613A2000B0432048756D656461643A20B6
S1090E5800250A0D000054
S9030000FC
